{
  "_format": "hh-sol-artifact-1",
  "contractName": "MyEpicNFT",
  "sourceName": "contracts/MyEpicNFT.sol",
  "abi": [
    {
      "inputs": [],
      "stateMutability": "nonpayable",
      "type": "constructor"
    },
    {
      "anonymous": false,
      "inputs": [
        {
          "indexed": true,
          "internalType": "address",
          "name": "owner",
          "type": "address"
        },
        {
          "indexed": true,
          "internalType": "address",
          "name": "approved",
          "type": "address"
        },
        {
          "indexed": true,
          "internalType": "uint256",
          "name": "tokenId",
          "type": "uint256"
        }
      ],
      "name": "Approval",
      "type": "event"
    },
    {
      "anonymous": false,
      "inputs": [
        {
          "indexed": true,
          "internalType": "address",
          "name": "owner",
          "type": "address"
        },
        {
          "indexed": true,
          "internalType": "address",
          "name": "operator",
          "type": "address"
        },
        {
          "indexed": false,
          "internalType": "bool",
          "name": "approved",
          "type": "bool"
        }
      ],
      "name": "ApprovalForAll",
      "type": "event"
    },
    {
      "anonymous": false,
      "inputs": [
        {
          "indexed": false,
          "internalType": "address",
          "name": "sender",
          "type": "address"
        },
        {
          "indexed": false,
          "internalType": "uint256",
          "name": "tokenId",
          "type": "uint256"
        }
      ],
      "name": "NewEpicNFTMinted",
      "type": "event"
    },
    {
      "anonymous": false,
      "inputs": [
        {
          "indexed": true,
          "internalType": "address",
          "name": "from",
          "type": "address"
        },
        {
          "indexed": true,
          "internalType": "address",
          "name": "to",
          "type": "address"
        },
        {
          "indexed": true,
          "internalType": "uint256",
          "name": "tokenId",
          "type": "uint256"
        }
      ],
      "name": "Transfer",
      "type": "event"
    },
    {
      "inputs": [
        {
          "internalType": "address",
          "name": "to",
          "type": "address"
        },
        {
          "internalType": "uint256",
          "name": "tokenId",
          "type": "uint256"
        }
      ],
      "name": "approve",
      "outputs": [],
      "stateMutability": "nonpayable",
      "type": "function"
    },
    {
      "inputs": [
        {
          "internalType": "address",
          "name": "owner",
          "type": "address"
        }
      ],
      "name": "balanceOf",
      "outputs": [
        {
          "internalType": "uint256",
          "name": "",
          "type": "uint256"
        }
      ],
      "stateMutability": "view",
      "type": "function"
    },
    {
      "inputs": [
        {
          "internalType": "uint256",
          "name": "tokenId",
          "type": "uint256"
        }
      ],
      "name": "getApproved",
      "outputs": [
        {
          "internalType": "address",
          "name": "",
          "type": "address"
        }
      ],
      "stateMutability": "view",
      "type": "function"
    },
    {
      "inputs": [],
      "name": "getTokenIds",
      "outputs": [
        {
          "internalType": "uint256",
          "name": "",
          "type": "uint256"
        }
      ],
      "stateMutability": "view",
      "type": "function"
    },
    {
      "inputs": [
        {
          "internalType": "address",
          "name": "owner",
          "type": "address"
        },
        {
          "internalType": "address",
          "name": "operator",
          "type": "address"
        }
      ],
      "name": "isApprovedForAll",
      "outputs": [
        {
          "internalType": "bool",
          "name": "",
          "type": "bool"
        }
      ],
      "stateMutability": "view",
      "type": "function"
    },
    {
      "inputs": [],
      "name": "makeAnEpicNFT",
      "outputs": [],
      "stateMutability": "nonpayable",
      "type": "function"
    },
    {
      "inputs": [],
      "name": "name",
      "outputs": [
        {
          "internalType": "string",
          "name": "",
          "type": "string"
        }
      ],
      "stateMutability": "view",
      "type": "function"
    },
    {
      "inputs": [
        {
          "internalType": "uint256",
          "name": "tokenId",
          "type": "uint256"
        }
      ],
      "name": "ownerOf",
      "outputs": [
        {
          "internalType": "address",
          "name": "",
          "type": "address"
        }
      ],
      "stateMutability": "view",
      "type": "function"
    },
    {
      "inputs": [
        {
          "internalType": "uint256",
          "name": "tokenId",
          "type": "uint256"
        }
      ],
      "name": "pickRandomFirstWord",
      "outputs": [
        {
          "internalType": "string",
          "name": "",
          "type": "string"
        }
      ],
      "stateMutability": "view",
      "type": "function"
    },
    {
      "inputs": [
        {
          "internalType": "uint256",
          "name": "tokenId",
          "type": "uint256"
        }
      ],
      "name": "pickRandomSecondWord",
      "outputs": [
        {
          "internalType": "string",
          "name": "",
          "type": "string"
        }
      ],
      "stateMutability": "view",
      "type": "function"
    },
    {
      "inputs": [
        {
          "internalType": "uint256",
          "name": "tokenId",
          "type": "uint256"
        }
      ],
      "name": "pickRandomThirdWord",
      "outputs": [
        {
          "internalType": "string",
          "name": "",
          "type": "string"
        }
      ],
      "stateMutability": "view",
      "type": "function"
    },
    {
      "inputs": [
        {
          "internalType": "address",
          "name": "from",
          "type": "address"
        },
        {
          "internalType": "address",
          "name": "to",
          "type": "address"
        },
        {
          "internalType": "uint256",
          "name": "tokenId",
          "type": "uint256"
        }
      ],
      "name": "safeTransferFrom",
      "outputs": [],
      "stateMutability": "nonpayable",
      "type": "function"
    },
    {
      "inputs": [
        {
          "internalType": "address",
          "name": "from",
          "type": "address"
        },
        {
          "internalType": "address",
          "name": "to",
          "type": "address"
        },
        {
          "internalType": "uint256",
          "name": "tokenId",
          "type": "uint256"
        },
        {
          "internalType": "bytes",
          "name": "data",
          "type": "bytes"
        }
      ],
      "name": "safeTransferFrom",
      "outputs": [],
      "stateMutability": "nonpayable",
      "type": "function"
    },
    {
      "inputs": [
        {
          "internalType": "address",
          "name": "operator",
          "type": "address"
        },
        {
          "internalType": "bool",
          "name": "approved",
          "type": "bool"
        }
      ],
      "name": "setApprovalForAll",
      "outputs": [],
      "stateMutability": "nonpayable",
      "type": "function"
    },
    {
      "inputs": [
        {
          "internalType": "bytes4",
          "name": "interfaceId",
          "type": "bytes4"
        }
      ],
      "name": "supportsInterface",
      "outputs": [
        {
          "internalType": "bool",
          "name": "",
          "type": "bool"
        }
      ],
      "stateMutability": "view",
      "type": "function"
    },
    {
      "inputs": [],
      "name": "symbol",
      "outputs": [
        {
          "internalType": "string",
          "name": "",
          "type": "string"
        }
      ],
      "stateMutability": "view",
      "type": "function"
    },
    {
      "inputs": [
        {
          "internalType": "uint256",
          "name": "tokenId",
          "type": "uint256"
        }
      ],
      "name": "tokenURI",
      "outputs": [
        {
          "internalType": "string",
          "name": "",
          "type": "string"
        }
      ],
      "stateMutability": "view",
      "type": "function"
    },
    {
      "inputs": [
        {
          "internalType": "address",
          "name": "from",
          "type": "address"
        },
        {
          "internalType": "address",
          "name": "to",
          "type": "address"
        },
        {
          "internalType": "uint256",
          "name": "tokenId",
          "type": "uint256"
        }
      ],
      "name": "transferFrom",
      "outputs": [],
      "stateMutability": "nonpayable",
      "type": "function"
    }
  ],
  "bytecode": "0x6080604052603260075560405180610160016040528061012f81526020016200479661012f913960099081620000369190620009d5565b506040518060c001604052806040518060400160405280600481526020017f457069630000000000000000000000000000000000000000000000000000000081525081526020016040518060400160405280600981526020017f46616e746173746963000000000000000000000000000000000000000000000081525081526020016040518060400160405280600581526020017f437275646500000000000000000000000000000000000000000000000000000081525081526020016040518060400160405280600581526020017f4372617a7900000000000000000000000000000000000000000000000000000081525081526020016040518060400160405280600a81526020017f4879737465726963616c0000000000000000000000000000000000000000000081525081526020016040518060400160405280600581526020017f4772616e64000000000000000000000000000000000000000000000000000000815250815250600a906006620001b49291906200066e565b506040518060c001604052806040518060400160405280600481526020017f4d6574610000000000000000000000000000000000000000000000000000000081525081526020016040518060400160405280600481526020017f4c6976650000000000000000000000000000000000000000000000000000000081525081526020016040518060400160405280600381526020017f506f70000000000000000000000000000000000000000000000000000000000081525081526020016040518060400160405280600481526020017f437574650000000000000000000000000000000000000000000000000000000081525081526020016040518060400160405280600581526020017f537765657400000000000000000000000000000000000000000000000000000081525081526020016040518060400160405280600381526020017f486f740000000000000000000000000000000000000000000000000000000000815250815250600b906006620003329291906200066e565b506040518060c001604052806040518060400160405280600681526020017f4b697474656e000000000000000000000000000000000000000000000000000081525081526020016040518060400160405280600581526020017f507570707900000000000000000000000000000000000000000000000000000081525081526020016040518060400160405280600681526020017f4d6f6e6b6579000000000000000000000000000000000000000000000000000081525081526020016040518060400160405280600481526020017f426972640000000000000000000000000000000000000000000000000000000081525081526020016040518060400160405280600581526020017f50616e646100000000000000000000000000000000000000000000000000000081525081526020016040518060400160405280600881526020017f456c657068616e74000000000000000000000000000000000000000000000000815250815250600c906006620004b09291906200066e565b50348015620004be57600080fd5b506040518060400160405280600981526020017f5371756172654e465400000000000000000000000000000000000000000000008152506040518060400160405280600681526020017f535155415245000000000000000000000000000000000000000000000000000081525081600090816200053c9190620009d5565b5080600190816200054e9190620009d5565b5050506200059c6040518060400160405280601881526020017f54686973206973206d79204e465420636f6e74726163742e0000000000000000815250620005a260201b620010ea1760201c565b62000b6f565b6200064281604051602401620005b9919062000b4b565b6040516020818303038152906040527f41304fac000000000000000000000000000000000000000000000000000000007bffffffffffffffffffffffffffffffffffffffffffffffffffffffff19166020820180517bffffffffffffffffffffffffffffffffffffffffffffffffffffffff83818316178352505050506200064560201b60201c565b50565b60008151905060006a636f6e736f6c652e6c6f679050602083016000808483855afa5050505050565b828054828255906000526020600020908101928215620006bb579160200282015b82811115620006ba578251829081620006a99190620009d5565b50916020019190600101906200068f565b5b509050620006ca9190620006ce565b5090565b5b80821115620006f25760008181620006e89190620006f6565b50600101620006cf565b5090565b5080546200070490620007c4565b6000825580601f1062000718575062000739565b601f0160209004906000526020600020908101906200073891906200073c565b5b50565b5b80821115620007575760008160009055506001016200073d565b5090565b600081519050919050565b7f4e487b7100000000000000000000000000000000000000000000000000000000600052604160045260246000fd5b7f4e487b7100000000000000000000000000000000000000000000000000000000600052602260045260246000fd5b60006002820490506001821680620007dd57607f821691505b602082108103620007f357620007f262000795565b5b50919050565b60008190508160005260206000209050919050565b60006020601f8301049050919050565b600082821b905092915050565b6000600883026200085d7fffffffffffffffffffffffffffffffffffffffffffffffffffffffffffffffff826200081e565b6200086986836200081e565b95508019841693508086168417925050509392505050565b6000819050919050565b6000819050919050565b6000620008b6620008b0620008aa8462000881565b6200088b565b62000881565b9050919050565b6000819050919050565b620008d28362000895565b620008ea620008e182620008bd565b8484546200082b565b825550505050565b600090565b62000901620008f2565b6200090e818484620008c7565b505050565b5b8181101562000936576200092a600082620008f7565b60018101905062000914565b5050565b601f82111562000985576200094f81620007f9565b6200095a846200080e565b810160208510156200096a578190505b6200098262000979856200080e565b83018262000913565b50505b505050565b600082821c905092915050565b6000620009aa600019846008026200098a565b1980831691505092915050565b6000620009c5838362000997565b9150826002028217905092915050565b620009e0826200075b565b67ffffffffffffffff811115620009fc57620009fb62000766565b5b62000a088254620007c4565b62000a158282856200093a565b600060209050601f83116001811462000a4d576000841562000a38578287015190505b62000a448582620009b7565b86555062000ab4565b601f19841662000a5d86620007f9565b60005b8281101562000a875784890151825560018201915060208501945060208101905062000a60565b8683101562000aa7578489015162000aa3601f89168262000997565b8355505b6001600288020188555050505b505050505050565b600082825260208201905092915050565b60005b8381101562000aed57808201518184015260208101905062000ad0565b60008484015250505050565b6000601f19601f8301169050919050565b600062000b17826200075b565b62000b23818562000abc565b935062000b3581856020860162000acd565b62000b408162000af9565b840191505092915050565b6000602082019050818103600083015262000b67818462000b0a565b905092915050565b613c178062000b7f6000396000f3fe608060405234801561001057600080fd5b50600436106101165760003560e01c806370a08231116100a2578063b88d4fde11610071578063b88d4fde14610305578063c575757a14610321578063c87b56dd14610351578063de9d132f14610381578063e985e9c51461038b57610116565b806370a082311461026b57806395d89b411461029b578063a22cb465146102b9578063b187301f146102d557610116565b806323b872dd116100e957806323b872dd146101b55780632de38d68146101d157806342842e0e146102015780636352211e1461021d57806367f718a91461024d57610116565b806301ffc9a71461011b57806306fdde031461014b578063081812fc14610169578063095ea7b314610199575b600080fd5b61013560048036038101906101309190612504565b6103bb565b604051610142919061254c565b60405180910390f35b61015361049d565b60405161016091906125f7565b60405180910390f35b610183600480360381019061017e919061264f565b61052f565b60405161019091906126bd565b60405180910390f35b6101b360048036038101906101ae9190612704565b610575565b005b6101cf60048036038101906101ca9190612744565b61068c565b005b6101eb60048036038101906101e6919061264f565b6106ec565b6040516101f891906125f7565b60405180910390f35b61021b60048036038101906102169190612744565b610862565b005b6102376004803603810190610232919061264f565b610882565b60405161024491906126bd565b60405180910390f35b610255610908565b60405161026291906127a6565b60405180910390f35b610285600480360381019061028091906127c1565b610919565b60405161029291906127a6565b60405180910390f35b6102a36109d0565b6040516102b091906125f7565b60405180910390f35b6102d360048036038101906102ce919061281a565b610a62565b005b6102ef60048036038101906102ea919061264f565b610a78565b6040516102fc91906125f7565b60405180910390f35b61031f600480360381019061031a919061298f565b610b70565b005b61033b6004803603810190610336919061264f565b610bd2565b60405161034891906125f7565b60405180910390f35b61036b6004803603810190610366919061264f565b610cca565b60405161037891906125f7565b60405180910390f35b610389610ddc565b005b6103a560048036038101906103a09190612a12565b611056565b6040516103b2919061254c565b60405180910390f35b60007f80ac58cd000000000000000000000000000000000000000000000000000000007bffffffffffffffffffffffffffffffffffffffffffffffffffffffff1916827bffffffffffffffffffffffffffffffffffffffffffffffffffffffff1916148061048657507f5b5e139f000000000000000000000000000000000000000000000000000000007bffffffffffffffffffffffffffffffffffffffffffffffffffffffff1916827bffffffffffffffffffffffffffffffffffffffffffffffffffffffff1916145b80610496575061049582611183565b5b9050919050565b6060600080546104ac90612a81565b80601f01602080910402602001604051908101604052809291908181526020018280546104d890612a81565b80156105255780601f106104fa57610100808354040283529160200191610525565b820191906000526020600020905b81548152906001019060200180831161050857829003601f168201915b5050505050905090565b600061053a826111ed565b6004600083815260200190815260200160002060009054906101000a900473ffffffffffffffffffffffffffffffffffffffff169050919050565b600061058082610882565b90508073ffffffffffffffffffffffffffffffffffffffff168373ffffffffffffffffffffffffffffffffffffffff16036105f0576040517f08c379a00000000000000000000000000000000000000000000000000000000081526004016105e790612b24565b60405180910390fd5b8073ffffffffffffffffffffffffffffffffffffffff1661060f611238565b73ffffffffffffffffffffffffffffffffffffffff16148061063e575061063d81610638611238565b611056565b5b61067d576040517f08c379a000000000000000000000000000000000000000000000000000000000815260040161067490612bb6565b60405180910390fd5b6106878383611240565b505050565b61069d610697611238565b826112f9565b6106dc576040517f08c379a00000000000000000000000000000000000000000000000000000000081526004016106d390612c48565b60405180910390fd5b6106e783838361138e565b505050565b606060006107206106fc84611687565b60405160200161070c9190612cf0565b604051602081830303815290604052611755565b90506107616040518060400160405280600b81526020017f72616e6420736565643a2000000000000000000000000000000000000000000081525082611788565b600a80549050816107729190612d41565b90506107b36040518060400160405280601181526020017f72616e6420666972737420776f72643a2000000000000000000000000000000081525082611788565b600a81815481106107c7576107c6612d72565b5b9060005260206000200180546107dc90612a81565b80601f016020809104026020016040519081016040528092919081815260200182805461080890612a81565b80156108555780601f1061082a57610100808354040283529160200191610855565b820191906000526020600020905b81548152906001019060200180831161083857829003601f168201915b5050505050915050919050565b61087d83838360405180602001604052806000815250610b70565b505050565b60008061088e83611824565b9050600073ffffffffffffffffffffffffffffffffffffffff168173ffffffffffffffffffffffffffffffffffffffff16036108ff576040517f08c379a00000000000000000000000000000000000000000000000000000000081526004016108f690612ded565b60405180910390fd5b80915050919050565b60006109146008611861565b905090565b60008073ffffffffffffffffffffffffffffffffffffffff168273ffffffffffffffffffffffffffffffffffffffff1603610989576040517f08c379a000000000000000000000000000000000000000000000000000000000815260040161098090612e7f565b60405180910390fd5b600360008373ffffffffffffffffffffffffffffffffffffffff1673ffffffffffffffffffffffffffffffffffffffff168152602001908152602001600020549050919050565b6060600180546109df90612a81565b80601f0160208091040260200160405190810160405280929190818152602001828054610a0b90612a81565b8015610a585780601f10610a2d57610100808354040283529160200191610a58565b820191906000526020600020905b815481529060010190602001808311610a3b57829003601f168201915b5050505050905090565b610a74610a6d611238565b838361186f565b5050565b60606000610aac610a8884611687565b604051602001610a989190612eeb565b604051602081830303815290604052611755565b9050600b8054905081610abf9190612d41565b9050600b8181548110610ad557610ad4612d72565b5b906000526020600020018054610aea90612a81565b80601f0160208091040260200160405190810160405280929190818152602001828054610b1690612a81565b8015610b635780601f10610b3857610100808354040283529160200191610b63565b820191906000526020600020905b815481529060010190602001808311610b4657829003601f168201915b5050505050915050919050565b610b81610b7b611238565b836112f9565b610bc0576040517f08c379a0000000000000000000000000000000000000000000000000000000008152600401610bb790612c48565b60405180910390fd5b610bcc848484846119db565b50505050565b60606000610c06610be284611687565b604051602001610bf29190612f59565b604051602081830303815290604052611755565b9050600c8054905081610c199190612d41565b9050600c8181548110610c2f57610c2e612d72565b5b906000526020600020018054610c4490612a81565b80601f0160208091040260200160405190810160405280929190818152602001828054610c7090612a81565b8015610cbd5780601f10610c9257610100808354040283529160200191610cbd565b820191906000526020600020905b815481529060010190602001808311610ca057829003601f168201915b5050505050915050919050565b6060610cd5826111ed565b6000600660008481526020019081526020016000208054610cf590612a81565b80601f0160208091040260200160405190810160405280929190818152602001828054610d2190612a81565b8015610d6e5780601f10610d4357610100808354040283529160200191610d6e565b820191906000526020600020905b815481529060010190602001808311610d5157829003601f168201915b505050505090506000610d7f611a37565b90506000815103610d94578192505050610dd7565b600082511115610dc9578082604051602001610db1929190612f7b565b60405160208183030381529060405292505050610dd7565b610dd284611a4e565b925050505b919050565b6000610de86008611861565b90506007548110610df857600080fd5b6000610e03826106ec565b90506000610e1083610a78565b90506000610e1d84610bd2565b90506000838383604051602001610e3693929190612f9f565b60405160208183030381529060405290506000600982604051602001610e5d9291906130b4565b6040516020818303038152906040529050610eac6040518060400160405280601581526020017f0a2d2d2d2d2d2d2d2d2d2d2d2d2d2d2d2d2d2d2d2d00000000000000000000008152506110ea565b610eb5816110ea565b610ef36040518060400160405280601581526020017f2d2d2d2d2d2d2d2d2d2d2d2d2d2d2d2d2d2d2d2d0a00000000000000000000008152506110ea565b6000610f2783610f0284611ab6565b604051602001610f13929190613239565b604051602081830303815290604052611ab6565b9050600081604051602001610f3c91906132ca565b6040516020818303038152906040529050610f8b6040518060400160405280601581526020017f0a2d2d2d2d2d20546f6b656e20555249202d2d2d2d00000000000000000000008152506110ea565b610f94816110ea565b610fd26040518060400160405280601581526020017f2d2d2d2d2d2d2d2d2d2d2d2d2d2d2d2d2d2d2d2d0a00000000000000000000008152506110ea565b610fdc3389611c4d565b610fe68882611c6b565b611009604051806060016040528060258152602001613b7d602591398933611cd8565b6110136008611d77565b7febb98688741ffa4c7589bf325de30cf7becb63de567842e1ccdb6cb949fdc82c33896040516110449291906132ec565b60405180910390a15050505050505050565b6000600560008473ffffffffffffffffffffffffffffffffffffffff1673ffffffffffffffffffffffffffffffffffffffff16815260200190815260200160002060008373ffffffffffffffffffffffffffffffffffffffff1673ffffffffffffffffffffffffffffffffffffffff16815260200190815260200160002060009054906101000a900460ff16905092915050565b611180816040516024016110fe91906125f7565b6040516020818303038152906040527f41304fac000000000000000000000000000000000000000000000000000000007bffffffffffffffffffffffffffffffffffffffffffffffffffffffff19166020820180517bffffffffffffffffffffffffffffffffffffffffffffffffffffffff8381831617835250505050611d8d565b50565b60007f01ffc9a7000000000000000000000000000000000000000000000000000000007bffffffffffffffffffffffffffffffffffffffffffffffffffffffff1916827bffffffffffffffffffffffffffffffffffffffffffffffffffffffff1916149050919050565b6111f681611db6565b611235576040517f08c379a000000000000000000000000000000000000000000000000000000000815260040161122c90612ded565b60405180910390fd5b50565b600033905090565b816004600083815260200190815260200160002060006101000a81548173ffffffffffffffffffffffffffffffffffffffff021916908373ffffffffffffffffffffffffffffffffffffffff160217905550808273ffffffffffffffffffffffffffffffffffffffff166112b383610882565b73ffffffffffffffffffffffffffffffffffffffff167f8c5be1e5ebec7d5bd14f71427d1e84f3dd0314c0f7b2291e5b200ac8c7c3b92560405160405180910390a45050565b60008061130583610882565b90508073ffffffffffffffffffffffffffffffffffffffff168473ffffffffffffffffffffffffffffffffffffffff16148061134757506113468185611056565b5b8061138557508373ffffffffffffffffffffffffffffffffffffffff1661136d8461052f565b73ffffffffffffffffffffffffffffffffffffffff16145b91505092915050565b8273ffffffffffffffffffffffffffffffffffffffff166113ae82610882565b73ffffffffffffffffffffffffffffffffffffffff1614611404576040517f08c379a00000000000000000000000000000000000000000000000000000000081526004016113fb90613387565b60405180910390fd5b600073ffffffffffffffffffffffffffffffffffffffff168273ffffffffffffffffffffffffffffffffffffffff1603611473576040517f08c379a000000000000000000000000000000000000000000000000000000000815260040161146a90613419565b60405180910390fd5b6114808383836001611df7565b8273ffffffffffffffffffffffffffffffffffffffff166114a082610882565b73ffffffffffffffffffffffffffffffffffffffff16146114f6576040517f08c379a00000000000000000000000000000000000000000000000000000000081526004016114ed90613387565b60405180910390fd5b6004600082815260200190815260200160002060006101000a81549073ffffffffffffffffffffffffffffffffffffffff02191690556001600360008573ffffffffffffffffffffffffffffffffffffffff1673ffffffffffffffffffffffffffffffffffffffff168152602001908152602001600020600082825403925050819055506001600360008473ffffffffffffffffffffffffffffffffffffffff1673ffffffffffffffffffffffffffffffffffffffff16815260200190815260200160002060008282540192505081905550816002600083815260200190815260200160002060006101000a81548173ffffffffffffffffffffffffffffffffffffffff021916908373ffffffffffffffffffffffffffffffffffffffff160217905550808273ffffffffffffffffffffffffffffffffffffffff168473ffffffffffffffffffffffffffffffffffffffff167fddf252ad1be2c89b69c2b068fc378daa952ba7f163c4a11628f55a4df523b3ef60405160405180910390a46116828383836001611f1d565b505050565b60606000600161169684611f23565b01905060008167ffffffffffffffff8111156116b5576116b4612864565b5b6040519080825280601f01601f1916602001820160405280156116e75781602001600182028036833780820191505090505b509050600082602001820190505b60011561174a578080600190039150507f3031323334353637383961626364656600000000000000000000000000000000600a86061a8153600a858161173e5761173d612d12565b5b049450600085036116f5575b819350505050919050565b6000816040516020016117689190613439565b6040516020818303038152906040528051906020012060001c9050919050565b611820828260405160240161179e929190613450565b6040516020818303038152906040527fb60e72cc000000000000000000000000000000000000000000000000000000007bffffffffffffffffffffffffffffffffffffffffffffffffffffffff19166020820180517bffffffffffffffffffffffffffffffffffffffffffffffffffffffff8381831617835250505050611d8d565b5050565b60006002600083815260200190815260200160002060009054906101000a900473ffffffffffffffffffffffffffffffffffffffff169050919050565b600081600001549050919050565b8173ffffffffffffffffffffffffffffffffffffffff168373ffffffffffffffffffffffffffffffffffffffff16036118dd576040517f08c379a00000000000000000000000000000000000000000000000000000000081526004016118d4906134cc565b60405180910390fd5b80600560008573ffffffffffffffffffffffffffffffffffffffff1673ffffffffffffffffffffffffffffffffffffffff16815260200190815260200160002060008473ffffffffffffffffffffffffffffffffffffffff1673ffffffffffffffffffffffffffffffffffffffff16815260200190815260200160002060006101000a81548160ff0219169083151502179055508173ffffffffffffffffffffffffffffffffffffffff168373ffffffffffffffffffffffffffffffffffffffff167f17307eab39ab6107e8899845ad3d59bd9653f200f220920489ca2b5937696c31836040516119ce919061254c565b60405180910390a3505050565b6119e684848461138e565b6119f284848484612076565b611a31576040517f08c379a0000000000000000000000000000000000000000000000000000000008152600401611a289061355e565b60405180910390fd5b50505050565b606060405180602001604052806000815250905090565b6060611a59826111ed565b6000611a63611a37565b90506000815111611a835760405180602001604052806000815250611aae565b80611a8d84611687565b604051602001611a9e929190612f7b565b6040516020818303038152906040525b915050919050565b606060008251905060008103611ade5760405180602001604052806000815250915050611c48565b60006003600283611aef91906135ad565b611af991906135e1565b6004611b059190613612565b90506000602082611b1691906135ad565b67ffffffffffffffff811115611b2f57611b2e612864565b5b6040519080825280601f01601f191660200182016040528015611b615781602001600182028036833780820191505090505b5090506000604051806060016040528060408152602001613ba2604091399050600181016020830160005b86811015611c055760038101905062ffffff818a015116603f8160121c168401518060081b905060ff603f83600c1c1686015116810190508060081b905060ff603f8360061c1686015116810190508060081b905060ff603f831686015116810190508060e01b90508084526004840193505050611b8c565b506003860660018114611c1f5760028114611c2f57611c3a565b613d3d60f01b6002830352611c3a565b603d60f81b60018303525b508484525050819450505050505b919050565b611c678282604051806020016040528060008152506121fd565b5050565b611c7482611db6565b611cb3576040517f08c379a0000000000000000000000000000000000000000000000000000000008152600401611caa906136c6565b60405180910390fd5b80600660008481526020019081526020016000209081611cd3919061387d565b505050565b611d72838383604051602401611cf09392919061394f565b6040516020818303038152906040527f1c7ec448000000000000000000000000000000000000000000000000000000007bffffffffffffffffffffffffffffffffffffffffffffffffffffffff19166020820180517bffffffffffffffffffffffffffffffffffffffffffffffffffffffff8381831617835250505050611d8d565b505050565b6001816000016000828254019250508190555050565b60008151905060006a636f6e736f6c652e6c6f679050602083016000808483855afa5050505050565b60008073ffffffffffffffffffffffffffffffffffffffff16611dd883611824565b73ffffffffffffffffffffffffffffffffffffffff1614159050919050565b6001811115611f1757600073ffffffffffffffffffffffffffffffffffffffff168473ffffffffffffffffffffffffffffffffffffffff1614611e8b5780600360008673ffffffffffffffffffffffffffffffffffffffff1673ffffffffffffffffffffffffffffffffffffffff1681526020019081526020016000206000828254611e83919061398d565b925050819055505b600073ffffffffffffffffffffffffffffffffffffffff168373ffffffffffffffffffffffffffffffffffffffff1614611f165780600360008573ffffffffffffffffffffffffffffffffffffffff1673ffffffffffffffffffffffffffffffffffffffff1681526020019081526020016000206000828254611f0e91906135ad565b925050819055505b5b50505050565b50505050565b600080600090507a184f03e93ff9f4daa797ed6e38ed64bf6a1f0100000000000000008310611f81577a184f03e93ff9f4daa797ed6e38ed64bf6a1f0100000000000000008381611f7757611f76612d12565b5b0492506040810190505b6d04ee2d6d415b85acef81000000008310611fbe576d04ee2d6d415b85acef81000000008381611fb457611fb3612d12565b5b0492506020810190505b662386f26fc100008310611fed57662386f26fc100008381611fe357611fe2612d12565b5b0492506010810190505b6305f5e1008310612016576305f5e100838161200c5761200b612d12565b5b0492506008810190505b612710831061203b57612710838161203157612030612d12565b5b0492506004810190505b6064831061205e576064838161205457612053612d12565b5b0492506002810190505b600a831061206d576001810190505b80915050919050565b60006120978473ffffffffffffffffffffffffffffffffffffffff16612258565b156121f0578373ffffffffffffffffffffffffffffffffffffffff1663150b7a026120c0611238565b8786866040518563ffffffff1660e01b81526004016120e29493929190613a16565b6020604051808303816000875af192505050801561211e57506040513d601f19601f8201168201806040525081019061211b9190613a77565b60015b6121a0573d806000811461214e576040519150601f19603f3d011682016040523d82523d6000602084013e612153565b606091505b506000815103612198576040517f08c379a000000000000000000000000000000000000000000000000000000000815260040161218f9061355e565b60405180910390fd5b805181602001fd5b63150b7a0260e01b7bffffffffffffffffffffffffffffffffffffffffffffffffffffffff1916817bffffffffffffffffffffffffffffffffffffffffffffffffffffffff1916149150506121f5565b600190505b949350505050565b612207838361227b565b6122146000848484612076565b612253576040517f08c379a000000000000000000000000000000000000000000000000000000000815260040161224a9061355e565b60405180910390fd5b505050565b6000808273ffffffffffffffffffffffffffffffffffffffff163b119050919050565b600073ffffffffffffffffffffffffffffffffffffffff168273ffffffffffffffffffffffffffffffffffffffff16036122ea576040517f08c379a00000000000000000000000000000000000000000000000000000000081526004016122e190613af0565b60405180910390fd5b6122f381611db6565b15612333576040517f08c379a000000000000000000000000000000000000000000000000000000000815260040161232a90613b5c565b60405180910390fd5b612341600083836001611df7565b61234a81611db6565b1561238a576040517f08c379a000000000000000000000000000000000000000000000000000000000815260040161238190613b5c565b60405180910390fd5b6001600360008473ffffffffffffffffffffffffffffffffffffffff1673ffffffffffffffffffffffffffffffffffffffff16815260200190815260200160002060008282540192505081905550816002600083815260200190815260200160002060006101000a81548173ffffffffffffffffffffffffffffffffffffffff021916908373ffffffffffffffffffffffffffffffffffffffff160217905550808273ffffffffffffffffffffffffffffffffffffffff16600073ffffffffffffffffffffffffffffffffffffffff167fddf252ad1be2c89b69c2b068fc378daa952ba7f163c4a11628f55a4df523b3ef60405160405180910390a4612494600083836001611f1d565b5050565b6000604051905090565b600080fd5b600080fd5b60007fffffffff0000000000000000000000000000000000000000000000000000000082169050919050565b6124e1816124ac565b81146124ec57600080fd5b50565b6000813590506124fe816124d8565b92915050565b60006020828403121561251a576125196124a2565b5b6000612528848285016124ef565b91505092915050565b60008115159050919050565b61254681612531565b82525050565b6000602082019050612561600083018461253d565b92915050565b600081519050919050565b600082825260208201905092915050565b60005b838110156125a1578082015181840152602081019050612586565b60008484015250505050565b6000601f19601f8301169050919050565b60006125c982612567565b6125d38185612572565b93506125e3818560208601612583565b6125ec816125ad565b840191505092915050565b6000602082019050818103600083015261261181846125be565b905092915050565b6000819050919050565b61262c81612619565b811461263757600080fd5b50565b60008135905061264981612623565b92915050565b600060208284031215612665576126646124a2565b5b60006126738482850161263a565b91505092915050565b600073ffffffffffffffffffffffffffffffffffffffff82169050919050565b60006126a78261267c565b9050919050565b6126b78161269c565b82525050565b60006020820190506126d260008301846126ae565b92915050565b6126e18161269c565b81146126ec57600080fd5b50565b6000813590506126fe816126d8565b92915050565b6000806040838503121561271b5761271a6124a2565b5b6000612729858286016126ef565b925050602061273a8582860161263a565b9150509250929050565b60008060006060848603121561275d5761275c6124a2565b5b600061276b868287016126ef565b935050602061277c868287016126ef565b925050604061278d8682870161263a565b9150509250925092565b6127a081612619565b82525050565b60006020820190506127bb6000830184612797565b92915050565b6000602082840312156127d7576127d66124a2565b5b60006127e5848285016126ef565b91505092915050565b6127f781612531565b811461280257600080fd5b50565b600081359050612814816127ee565b92915050565b60008060408385031215612831576128306124a2565b5b600061283f858286016126ef565b925050602061285085828601612805565b9150509250929050565b600080fd5b600080fd5b7f4e487b7100000000000000000000000000000000000000000000000000000000600052604160045260246000fd5b61289c826125ad565b810181811067ffffffffffffffff821117156128bb576128ba612864565b5b80604052505050565b60006128ce612498565b90506128da8282612893565b919050565b600067ffffffffffffffff8211156128fa576128f9612864565b5b612903826125ad565b9050602081019050919050565b82818337600083830152505050565b600061293261292d846128df565b6128c4565b90508281526020810184848401111561294e5761294d61285f565b5b612959848285612910565b509392505050565b600082601f8301126129765761297561285a565b5b813561298684826020860161291f565b91505092915050565b600080600080608085870312156129a9576129a86124a2565b5b60006129b7878288016126ef565b94505060206129c8878288016126ef565b93505060406129d98782880161263a565b925050606085013567ffffffffffffffff8111156129fa576129f96124a7565b5b612a0687828801612961565b91505092959194509250565b60008060408385031215612a2957612a286124a2565b5b6000612a37858286016126ef565b9250506020612a48858286016126ef565b9150509250929050565b7f4e487b7100000000000000000000000000000000000000000000000000000000600052602260045260246000fd5b60006002820490506001821680612a9957607f821691505b602082108103612aac57612aab612a52565b5b50919050565b7f4552433732313a20617070726f76616c20746f2063757272656e74206f776e6560008201527f7200000000000000000000000000000000000000000000000000000000000000602082015250565b6000612b0e602183612572565b9150612b1982612ab2565b604082019050919050565b60006020820190508181036000830152612b3d81612b01565b9050919050565b7f4552433732313a20617070726f76652063616c6c6572206973206e6f7420746f60008201527f6b656e206f776e6572206f7220617070726f76656420666f7220616c6c000000602082015250565b6000612ba0603d83612572565b9150612bab82612b44565b604082019050919050565b60006020820190508181036000830152612bcf81612b93565b9050919050565b7f4552433732313a2063616c6c6572206973206e6f7420746f6b656e206f776e6560008201527f72206f7220617070726f76656400000000000000000000000000000000000000602082015250565b6000612c32602d83612572565b9150612c3d82612bd6565b604082019050919050565b60006020820190508181036000830152612c6181612c25565b9050919050565b600081905092915050565b7f46495253545f574f524400000000000000000000000000000000000000000000600082015250565b6000612ca9600a83612c68565b9150612cb482612c73565b600a82019050919050565b6000612cca82612567565b612cd48185612c68565b9350612ce4818560208601612583565b80840191505092915050565b6000612cfb82612c9c565b9150612d078284612cbf565b915081905092915050565b7f4e487b7100000000000000000000000000000000000000000000000000000000600052601260045260246000fd5b6000612d4c82612619565b9150612d5783612619565b925082612d6757612d66612d12565b5b828206905092915050565b7f4e487b7100000000000000000000000000000000000000000000000000000000600052603260045260246000fd5b7f4552433732313a20696e76616c696420746f6b656e2049440000000000000000600082015250565b6000612dd7601883612572565b9150612de282612da1565b602082019050919050565b60006020820190508181036000830152612e0681612dca565b9050919050565b7f4552433732313a2061646472657373207a65726f206973206e6f74206120766160008201527f6c6964206f776e65720000000000000000000000000000000000000000000000602082015250565b6000612e69602983612572565b9150612e7482612e0d565b604082019050919050565b60006020820190508181036000830152612e9881612e5c565b9050919050565b7f5345434f4e445f574f5244000000000000000000000000000000000000000000600082015250565b6000612ed5600b83612c68565b9150612ee082612e9f565b600b82019050919050565b6000612ef682612ec8565b9150612f028284612cbf565b915081905092915050565b7f54484952445f574f524400000000000000000000000000000000000000000000600082015250565b6000612f43600a83612c68565b9150612f4e82612f0d565b600a82019050919050565b6000612f6482612f36565b9150612f708284612cbf565b915081905092915050565b6000612f878285612cbf565b9150612f938284612cbf565b91508190509392505050565b6000612fab8286612cbf565b9150612fb78285612cbf565b9150612fc38284612cbf565b9150819050949350505050565b60008190508160005260206000209050919050565b60008154612ff281612a81565b612ffc8186612c68565b94506001821660008114613017576001811461302c5761305f565b60ff198316865281151582028601935061305f565b61303585612fd0565b60005b8381101561305757815481890152600182019150602081019050613038565b838801955050505b50505092915050565b7f3c2f746578743e3c2f7376673e00000000000000000000000000000000000000600082015250565b600061309e600d83612c68565b91506130a982613068565b600d82019050919050565b60006130c08285612fe5565b91506130cc8284612cbf565b91506130d782613091565b91508190509392505050565b7f7b226e616d65223a202200000000000000000000000000000000000000000000600082015250565b6000613119600a83612c68565b9150613124826130e3565b600a82019050919050565b7f222c20226465736372697074696f6e223a20224120686967686c79206163636c60008201527f61696d656420636f6c6c656374696f6e206f6620737175617265732e222c202260208201527f696d616765223a2022646174613a696d6167652f7376672b786d6c3b6261736560408201527f36342c0000000000000000000000000000000000000000000000000000000000606082015250565b60006131d7606383612c68565b91506131e28261312f565b606382019050919050565b7f227d000000000000000000000000000000000000000000000000000000000000600082015250565b6000613223600283612c68565b915061322e826131ed565b600282019050919050565b60006132448261310c565b91506132508285612cbf565b915061325b826131ca565b91506132678284612cbf565b915061327282613216565b91508190509392505050565b7f646174613a6170706c69636174696f6e2f6a736f6e3b6261736536342c000000600082015250565b60006132b4601d83612c68565b91506132bf8261327e565b601d82019050919050565b60006132d5826132a7565b91506132e18284612cbf565b915081905092915050565b600060408201905061330160008301856126ae565b61330e6020830184612797565b9392505050565b7f4552433732313a207472616e736665722066726f6d20696e636f72726563742060008201527f6f776e6572000000000000000000000000000000000000000000000000000000602082015250565b6000613371602583612572565b915061337c82613315565b604082019050919050565b600060208201905081810360008301526133a081613364565b9050919050565b7f4552433732313a207472616e7366657220746f20746865207a65726f2061646460008201527f7265737300000000000000000000000000000000000000000000000000000000602082015250565b6000613403602483612572565b915061340e826133a7565b604082019050919050565b60006020820190508181036000830152613432816133f6565b9050919050565b60006134458284612cbf565b915081905092915050565b6000604082019050818103600083015261346a81856125be565b90506134796020830184612797565b9392505050565b7f4552433732313a20617070726f766520746f2063616c6c657200000000000000600082015250565b60006134b6601983612572565b91506134c182613480565b602082019050919050565b600060208201905081810360008301526134e5816134a9565b9050919050565b7f4552433732313a207472616e7366657220746f206e6f6e20455243373231526560008201527f63656976657220696d706c656d656e7465720000000000000000000000000000602082015250565b6000613548603283612572565b9150613553826134ec565b604082019050919050565b600060208201905081810360008301526135778161353b565b9050919050565b7f4e487b7100000000000000000000000000000000000000000000000000000000600052601160045260246000fd5b60006135b882612619565b91506135c383612619565b92508282019050808211156135db576135da61357e565b5b92915050565b60006135ec82612619565b91506135f783612619565b92508261360757613606612d12565b5b828204905092915050565b600061361d82612619565b915061362883612619565b925082820261363681612619565b9150828204841483151761364d5761364c61357e565b5b5092915050565b7f45524337323155524953746f726167653a2055524920736574206f66206e6f6e60008201527f6578697374656e7420746f6b656e000000000000000000000000000000000000602082015250565b60006136b0602e83612572565b91506136bb82613654565b604082019050919050565b600060208201905081810360008301526136df816136a3565b9050919050565b60006020601f8301049050919050565b600082821b905092915050565b6000600883026137337fffffffffffffffffffffffffffffffffffffffffffffffffffffffffffffffff826136f6565b61373d86836136f6565b95508019841693508086168417925050509392505050565b6000819050919050565b600061377a61377561377084612619565b613755565b612619565b9050919050565b6000819050919050565b6137948361375f565b6137a86137a082613781565b848454613703565b825550505050565b600090565b6137bd6137b0565b6137c881848461378b565b505050565b5b818110156137ec576137e16000826137b5565b6001810190506137ce565b5050565b601f8211156138315761380281612fd0565b61380b846136e6565b8101602085101561381a578190505b61382e613826856136e6565b8301826137cd565b50505b505050565b600082821c905092915050565b600061385460001984600802613836565b1980831691505092915050565b600061386d8383613843565b9150826002028217905092915050565b61388682612567565b67ffffffffffffffff81111561389f5761389e612864565b5b6138a98254612a81565b6138b48282856137f0565b600060209050601f8311600181146138e757600084156138d5578287015190505b6138df8582613861565b865550613947565b601f1984166138f586612fd0565b60005b8281101561391d578489015182556001820191506020850194506020810190506138f8565b8683101561393a5784890151613936601f891682613843565b8355505b6001600288020188555050505b505050505050565b6000606082019050818103600083015261396981866125be565b90506139786020830185612797565b61398560408301846126ae565b949350505050565b600061399882612619565b91506139a383612619565b92508282039050818111156139bb576139ba61357e565b5b92915050565b600081519050919050565b600082825260208201905092915050565b60006139e8826139c1565b6139f281856139cc565b9350613a02818560208601612583565b613a0b816125ad565b840191505092915050565b6000608082019050613a2b60008301876126ae565b613a3860208301866126ae565b613a456040830185612797565b8181036060830152613a5781846139dd565b905095945050505050565b600081519050613a71816124d8565b92915050565b600060208284031215613a8d57613a8c6124a2565b5b6000613a9b84828501613a62565b91505092915050565b7f4552433732313a206d696e7420746f20746865207a65726f2061646472657373600082015250565b6000613ada602083612572565b9150613ae582613aa4565b602082019050919050565b60006020820190508181036000830152613b0981613acd565b9050919050565b7f4552433732313a20746f6b656e20616c7265616479206d696e74656400000000600082015250565b6000613b46601c83612572565b9150613b5182613b10565b602082019050919050565b60006020820190508181036000830152613b7581613b39565b905091905056fe416e204e465420772f20494420257320686173206265656e206d696e74656420746f2025734142434445464748494a4b4c4d4e4f505152535455565758595a6162636465666768696a6b6c6d6e6f707172737475767778797a303132333435363738392b2fa2646970667358221220b7b1a2a45069c5cb5295f18d34915bb9db91f4e98be8ec38faa35327e6b970cc64736f6c634300081100333c73766720786d6c6e733d27687474703a2f2f7777772e77332e6f72672f323030302f73766727207072657365727665417370656374526174696f3d27784d696e594d696e206d656574272076696577426f783d273020302033353020333530273e3c7374796c653e2e62617365207b2066696c6c3a2077686974653b20666f6e742d66616d696c793a2073657269663b20666f6e742d73697a653a20323470783b207d3c2f7374796c653e3c726563742077696474683d273130302527206865696768743d2731303025272066696c6c3d27626c61636b27202f3e3c7465787420783d273530252720793d273530252720636c6173733d27626173652720646f6d696e616e742d626173656c696e653d276d6964646c652720746578742d616e63686f723d276d6964646c65273e",
  "linkReferences": {},
  "deployedLinkReferences": {}
}